:100000000C942A000C9447000C9447000C94470071
:100010000C9447000C9447000C9447000C94470044
:100020000C9447000C9447000C9447000C94470034
:100030000C9447000C9447000C9447000C94470024
:100040000C9447000C9447000C9447000C94470014
:100050000C94470011241FBECFE5D8E0DEBFCDBF12
:1000600012E0A0E6B0E0E2ECF0E302C005900D92F1
:10007000A430B107D9F712E0A4E0B2E001C01D92AC
:10008000A131B107E1F70E9474170C945F180C942A
:100090000000EF92FF920F931F937B018C0120E0F1
:1000A00030E040E05FE40E94F50388238CF0C80153
:1000B000B70120E030E040E05FE40E94C1010E940F
:1000C00055049B01AC01205030404040504806C0D0
:1000D000C801B7010E9455049B01AC01B901CA01D6
:1000E0001F910F91FF90EF900895A0E0B0E0EBE733
:1000F000F0E00C942818DC012B01FA019C9192305D
:1001000008F439C1EB018881823008F433C194309E
:1001100069F4843009F02FC111969C91119789815F
:10012000981709F428C1ABECB0E025C1843009F47C
:1001300021C18230A9F4923009F01DC19A01AD01AC
:1001400088E0EA010990AE01E90109929E0181501F
:10015000C1F7E201898111969C918923818308C1AD
:10016000923009F407C112962D903C901397EB0141
:100170008A819B811496AD90BD90CD90DC901797AD
:10018000EC80FD800E811F819101281B390BB90184
:1001900037FF04C066277727621B730B6032710537
:1001A0000CF061C0121613066CF537014801062EDB
:1001B00004C096948794779467940A94D2F721E0C8
:1001C00030E040E050E004C0220F331F441F551FB1
:1001D0006A95D2F721503040404050402E213F21B7
:1001E00040235123211531054105510521F021E01E
:1001F00030E040E050E079018A01E628F72808293C
:1002000019293CC0232BD1F1260E371E350146019A
:10021000062E04C096948794779467940A94D2F734
:1002200021E030E040E050E004C0220F331F441FC3
:10023000551F6A95D2F721503040404050402A2146
:100240003B214C215D21211531054105510521F04E
:1002500021E030E040E050E059016A01A628B728CB
:10026000C828D9280BC0821593052CF01C01AA249C
:10027000BB24650103C0EE24FF24870111969C91E5
:10028000D20111968C91981709F445C0992339F041
:10029000A80197012A193B094C095D0906C0A6016E
:1002A00095012E193F09400B510B57FD08C01182D3
:1002B0003382228224833583468357831DC081E0A5
:1002C00081833382228288279927DC01821B930B4A
:1002D000A40BB50B84839583A683B7830DC0220F2F
:1002E000331F441F551F24833583468357838281E0
:1002F000938101979383828324813581468157813D
:10030000DA01C9010197A109B1098F5F9F4FAF4F72
:10031000BF4328F30BC0918333822282EA0CFB1C7B
:100320000C1D1D1DE482F5820683178383E0808304
:10033000248135814681578157FF1AC0C901AA27F8
:1003400097FDA095BA2F81709070A070B0705695EF
:10035000479537952795822B932BA42BB52B848318
:100360009583A683B7838281938101969383828349
:10037000DF0101C0D201CD01CDB7DEB7E2E10C94BF
:100380004418A0E2B0E0E7ECF1E00C943418698383
:100390007A838B839C832D833E834F835887E9E048
:1003A000EE2EF12CEC0EFD1ECE010196B7010E943F
:1003B00046068E010F5E1F4FCE010596B8010E94C2
:1003C00046068A8991E089278A8BC701B801AE0168
:1003D000475E5F4F0E9475000E947105A096E6E09F
:1003E0000C945018A0E2B0E0E8EFF1E00C9434185F
:1003F00069837A838B839C832D833E834F835887C5
:10040000F9E0EF2EF12CEC0EFD1ECE010196B701A6
:100410000E9446068E010F5E1F4FCE010596B80161
:100420000E944606C701B801AE01475E5F4F0E94B9
:1004300075000E947105A096E6E00C945018A0E2A9
:10044000B0E0E5E2F2E00C94281869837A838B83AC
:100450009C832D833E834F835887CE010196BE0136
:10046000675F7F4F0E944606CE010596BE016F5E14
:100470007F4F0E9446069985923088F089898230A4
:10048000C8F0943019F4823051F404C0843029F457
:10049000923081F48BEC90E0C6C0923049F420E0B9
:1004A0009A858A89981321E02A87CE010996BBC0D4
:1004B000823049F420E09A858A89981321E02A8BBA
:1004C000CE014196B0C02D843E844F8458886D88FB
:1004D0007E888F88988CEE24FF248701AA24BB2471
:1004E000650140E050E060E070E0E0E0F0E0C10174
:1004F00081709070892BE9F0E60CF71C081D191D1E
:100500009A01AB012A0D3B1D4C1D5D1D80E090E062
:10051000A0E0B0E0E614F7040805190520F481E036
:1005200090E0A0E0B0E0BA01A901480F591F6A1F8E
:100530007B1FAA0CBB1CCC1CDD1C97FE08C081E0F5
:1005400090E0A0E0B0E0A82AB92ACA2ADB2A3196B6
:10055000E032F10549F0660C771C881C991C569412
:10056000479437942794C3CFFA85EA892B893C892D
:100570008B859C85280F391F2E5F3F4F17C0CA01FE
:1005800081709070892B61F016950795F794E79428
:1005900080E090E0A0E0B0E8E82AF92A0A2B1B2BC3
:1005A00076956795579547952F5F3F4F77FDE7CF36
:1005B0000CC0440F551F661F771F17FD4160EE0CDE
:1005C000FF1C001F111F21503040403090E05907A0
:1005D00090E0690790E4790760F32B8F3C8FDB0193
:1005E000CA018F779070A070B07080349105A1051A
:1005F000B10561F447FD0AC0E114F10401051105DC
:1006000029F0405C5F4F6F4F7F4F40781A8EFE1786
:1006100011F081E08A8F4D8F5E8F6F8F78A383E01A
:10062000898FCE0149960E947105A096E2E10C9453
:100630004418A8E1B0E0EFE1F3E00C9430186983CE
:100640007A838B839C832D833E834F835887B9E0C5
:10065000EB2EF12CEC0EFD1ECE010196B7010E948F
:1006600046068E010F5E1F4FCE010596B8010E940F
:1006700046062985223008F47EC03989323010F4CC
:10068000B8017CC08A859A8989278A87243011F02D
:10069000223031F4231709F06EC06BEC70E06EC0AD
:1006A000343039F41D861E861F86188A1C861B86E8
:1006B00004C0323021F484E08987B7015FC02B8504
:1006C0003C858B899C89281B390B3C872B87ED84C3
:1006D000FE840F851889AD88BE88CF88D88CEA142F
:1006E000FB040C051D0540F4EE0CFF1C001F111F40
:1006F000215030403C872B8720E030E040E050E044
:1007000080E090E0A0E0B0E460E070E0EA14FB0478
:100710000C051D0540F0282B392B4A2B5B2BEA18C2
:10072000FB080C091D09B695A79597958795EE0CC2
:10073000FF1C001F111F6F5F7F4F6F31710531F775
:10074000DA01C9018F779070A070B0708034910584
:10075000A105B10561F427FD0AC0E114F10401050A
:10076000110529F0205C3F4F4F4F5F4F20782D87B8
:100770003E874F87588BBE01675F7F4FCB010E943A
:1007800071056896EAE00C944C18A8E1B0E0EBEC37
:10079000F3E00C94341869837A838B839C832D83D4
:1007A0003E834F83588789E0E82EF12CEC0EFD1E26
:1007B000CE010196B7010E9446068E010F5E1F4FC3
:1007C000CE010596B8010E9446068985823040F028
:1007D0008989823028F0C701B8010E94BE0601C095
:1007E0008FEF6896E6E00C945018A8E1B0E0EBEFCC
:1007F000F3E00C94341869837A838B839C832D8374
:100800003E834F83588789E0E82EF12CEC0EFD1EC5
:10081000CE010196B7010E9446068E010F5E1F4F62
:10082000CE010596B8010E9446068985823040F0C7
:100830008989823028F0C701B8010E94BE0601C034
:100840008FEF6896E6E00C945018A8E1B0E0EBE278
:10085000F4E00C94341869837A838B839C832D8312
:100860003E834F83588789E0E82EF12CEC0EFD1E65
:10087000CE010196B7010E9446068E010F5E1F4F02
:10088000CE010596B8010E9446068985823040F067
:100890008989823028F0C701B8010E94BE0601C0D4
:1008A00081E06896E6E00C945018ACE0B0E0EBE52F
:1008B000F4E00C94381869837A838B839C83CE018F
:1008C0000196BE016B5F7F4F0E9446068D8182308C
:1008D00061F1823050F1843021F48E81882351F10E
:1008E0002EC02F81388537FD20C06E812F31310514
:1008F0001CF06623F9F023C08EE190E0821B930B7D
:1009000029853A854B855C8504C056954795379572
:1009100027958A95D2F76623B1F05095409530958A
:1009200021953F4F4F4F5F4F0EC020E030E040E039
:1009300050E009C02FEF3FEF4FEF5FE704C020E02A
:1009400030E040E050E8B901CA012C96E2E00C9496
:100950005418A8E0B0E0EFEAF4E00C9430187B0102
:100960008C01611571058105910519F482E0898377
:1009700060C083E089838EE1C82ED12CDC82CB82DB
:10098000ED82FE820F831887C801B7010E942205FD
:10099000FC013197F7FF3BC0222733272E1B3F0B6B
:1009A00057016801022E04C0D694C794B794A79447
:1009B0000A94D2F740E050E060E070E081E090E01F
:1009C000A0E0B0E004C0880F991FAA1FBB1F2A95A2
:1009D000D2F70197A109B1098E219F21A023B1234C
:1009E0000097A105B10521F041E050E060E070E022
:1009F0004A295B296C297D294D835E836F83788723
:100A00008EE190E08E1B9F0B9C838B8312C03097EE
:100A100081F00E2E04C0EE0CFF1C001F111F0A9463
:100A2000D2F7ED82FE820F831887CE1ADF0ADC82AE
:100A3000CB821A82CE0101960E9471052896EAE0C7
:100A40000C944C18EF92FF920F931F937B018C0133
:100A500080E0E81680E0F80681E0080780E01807EB
:100A600088F48FEFE816F1040105110531F028F044
:100A700088E090E0A0E0B0E017C080E090E0A0E067
:100A8000B0E012C080E0E81680E0F80680E00807D9
:100A900081E0180728F088E190E0A0E0B0E004C011
:100AA00080E190E0A0E0B0E020E230E040E050E003
:100AB000281B390B4A0B5B0B04C016950795F7945E
:100AC000E7948A95D2F7F701ED52FF4F8081281BFA
:100AD000310941095109C9011F910F91FF90EF9010
:100AE0000895DF92EF92FF920F931F93FC01E48031
:100AF000F58006811781D1808081823048F480E0C2
:100B000090E0A0E1B0E0E82AF92A0A2B1B2BA5C04F
:100B1000843009F49FC0823021F4EE24FF24870141
:100B200005C0E114F1040105110519F4E0E0F0E05D
:100B300096C0628173819FEF623879070CF05BC0C9
:100B400022E83FEF261B370B2A3131052CF020E03D
:100B500030E040E050E02AC0B801A701022E04C0F6
:100B600076956795579547950A94D2F781E090E07E
:100B7000A0E0B0E004C0880F991FAA1FBB1F2A95F0
:100B8000D2F70197A109B1098E219F21A023B1239A
:100B90000097A105B10521F081E090E0A0E0B0E070
:100BA0009A01AB01282B392B4A2B5B2BDA01C901A7
:100BB0008F779070A070B07080349105A105B10559
:100BC00039F427FF09C0205C3F4F4F4F5F4F04C0EF
:100BD000215C3F4F4F4F5F4FE0E0F0E02030A0E05E
:100BE0003A07A0E04A07A0E45A0710F0E1E0F0E07D
:100BF00079018A0127C06038710564F5FB01E1586D
:100C0000FF4FD801C7018F779070A070B07080340B
:100C10009105A105B10539F4E7FE0DC080E490E02F
:100C2000A0E0B0E004C08FE390E0A0E0B0E0E80E08
:100C3000F91E0A1F1B1F17FF05C016950795F7948D
:100C4000E794319687E016950795F794E7948A958F
:100C5000D1F705C0EE24FF248701EFEFF0E06E2FFF
:100C6000679566276795902F9F77D794DD24D79453
:100C70008E2F8695492F462B582F5D29B701CA0123
:100C80001F910F91FF90EF90DF900895FC01DB0121
:100C9000408151812281622F6F7770E0221F2227CD
:100CA000221F9381892F880F822B282F30E0991FD4
:100CB0009927991F11969C93119721153105A9F534
:100CC000411551056105710511F482E037C082E8D4
:100CD0009FEF13969C938E9312979A01AB0167E056
:100CE000220F331F441F551F6A95D1F783E08C9361
:100CF0000DC0220F331F441F551F12968D919C91DA
:100D00001397019713969C938E931297203080E04F
:100D1000380780E0480780E4580758F314962D936D
:100D20003D934D935C93179708952F3F310579F4C8
:100D3000411551056105710519F484E08C930895FE
:100D400064FF03C081E08C9312C01C9210C02F5727
:100D5000304013963C932E93129783E08C9387E058
:100D6000440F551F661F771F8A95D1F7706414963C
:100D70004D935D936D937C93179708951F93DC01BA
:100D8000FB019C91923008F447C08081823008F4C6
:100D900043C0943051F411961C91843099F58181AF
:100DA000682F70E0611B71093FC0843021F09230E0
:100DB00031F48230B9F18181882389F12DC01196F7
:100DC0001C9111978230F1F081811817D9F4129695
:100DD0002D913C911397828193818217930794F010
:100DE00028173907BCF014968D919D910D90BC91F8
:100DF000A02D2481358146815781281739074A075C
:100E00005B0718F4112341F00AC082179307A40767
:100E1000B50740F4112319F061E070E005C06FEFF1
:100E20007FEF02C060E070E0CB011F910895DF9377
:100E3000CF93CDB7DEB76C970FB6F894DEBF0FBE79
:100E4000CDBF80E090E0A0E2B2E4898F9A8FAB8FB3
:100E5000BC8F698D7A8D8B8D9C8D20E030E048E4CD
:100E600053E40E941F02DC01CB018D8B9E8BAF8B64
:100E7000B88F6D897E898F89988D20E030E040E8B9
:100E80005FE30E94250488232CF481E090E09C8B92
:100E90008B8B3FC06D897E898F89988D20E03FEFD5
:100EA0004FE757E40E94C50318164CF5698D7A8DFB
:100EB0008B8D9C8D20E030E040E251E40E941F02C7
:100EC000DC01CB01BC01CD010E944900DC01CB015A
:100ED0009C8B8B8B0FC084E190E09A8B898B8989E6
:100EE0009A890197F1F79A8B898B8B899C89019755
:100EF0009C8B8B8B8B899C89009769F714C06D89BB
:100F00007E898F89988D0E944900DC01CB019C8BE2
:100F10008B8B8B899C89988B8F878F85988901977C
:100F2000F1F7988B8F878CE30E94A6098CE00E94D2
:100F3000A60981E00E94A60980E090E0A0E0B0E46C
:100F40008B879C87AD87BE876B857C858D859E85CD
:100F500020E030E048E453E40E941F02DC01CB01B2
:100F60008F839887A987BA876F81788589859A85C5
:100F700020E030E040E85FE30E94250488232CF461
:100F800081E090E09E838D833FC06F817885898565
:100F90009A8520E03FEF4FE757E40E94C5031816FB
:100FA0004CF56B857C858D859E8520E030E040E2A8
:100FB00051E40E941F02DC01CB01BC01CD010E9463
:100FC0004900DC01CB019E838D830FC084E190E05A
:100FD0009C838B838B819C810197F1F79C838B830E
:100FE0008D819E8101979E838D838D819E81009747
:100FF00069F714C06F81788589859A850E944900B8
:10100000DC01CB019E838D838D819E819A838983B0
:1010100089819A810197F1F79A8389836C960FB63B
:10102000F894DEBF0FBECDBFCF91DF910895DF935F
:10103000CF93CDB7DEB76D970FB6F894DEBF0FBE76
:10104000CDBF8D8F84E490E060E070E041E050E03F
:101050000E94670C84E490E061E070E040E050E0C2
:101060000E94670C8D8D882F90E09C01217030705C
:1010700083E490E060E070E0A9010E94670C8D8D30
:101080008695882F90E09C012170307083E490E079
:1010900061E070E0A9010E94670C8D8D86958695B0
:1010A000882F90E09C012170307083E490E062E032
:1010B00070E0A9010E94670C8D8D869586958695B6
:1010C000882F90E09C012170307083E490E063E011
:1010D00070E0A9010E94670C8D8D82958F70882F1A
:1010E00090E09C012170307083E490E064E070E057
:1010F000A9010E94670C8D8D829586958770882F37
:1011000090E09C012170307083E490E065E070E035
:10111000A9010E94670C8D8D8295869586958370B6
:10112000882F90E09C012170307083E490E066E0AD
:1011300070E0A9010E94670C8D8D881F8827881F89
:10114000282F30E083E490E067E070E0A9010E947E
:10115000670C84E490E062E070E041E050E00E94BF
:10116000670C80E090E0A0E0B0E4898F9A8FAB8FAD
:10117000BC8F698D7A8D8B8D9C8D20E030E048E4AA
:1011800053E40E941F02DC01CB018D8B9E8BAF8B41
:10119000B88F6D897E898F89988D20E030E040E896
:1011A0005FE30E94250488232CF481E090E09C8B6F
:1011B0008B8B3FC06D897E898F89988D20E03FEFB2
:1011C0004FE757E40E94C50318164CF5698D7A8DD8
:1011D0008B8D9C8D20E030E040E251E40E941F02A4
:1011E000DC01CB01BC01CD010E944900DC01CB0137
:1011F0009C8B8B8B0FC084E190E09A8B898B8989C3
:101200009A890197F1F79A8B898B8B899C89019731
:101210009C8B8B8B8B899C89009769F714C06D8997
:101220007E898F89988D0E944900DC01CB019C8BBF
:101230008B8B8B899C89988B8F878F859889019759
:10124000F1F7988B8F8784E490E062E070E040E0F3
:1012500050E00E94670C80E090E0A0E0B0E48B8753
:101260009C87AD87BE876B857C858D859E8520E0BC
:1012700030E048E453E40E941F02DC01CB018F837D
:101280009887A987BA876F81788589859A8520E0B4
:1012900030E040E85FE30E94250488232CF481E0DD
:1012A00090E09E838D833FC06F81788589859A8584
:1012B00020E03FEF4FE757E40E94C50318164CF5B6
:1012C0006B857C858D859E8520E030E040E251E491
:1012D0000E941F02DC01CB01BC01CD010E9449002C
:1012E000DC01CB019E838D830FC084E190E09C8361
:1012F0008B838B819C810197F1F79C838B838D81FC
:101300009E8101979E838D838D819E81009769F7D1
:1013100014C06F81788589859A850E944900DC0117
:10132000CB019E838D838D819E819A838983898160
:101330009A810197F1F79A8389836D960FB6F89495
:10134000DEBF0FBECDBFCF91DF910895DF93CF9366
:10135000CDB7DEB76D970FB6F894DEBF0FBECDBF29
:101360008D8F84E490E060E070E040E050E00E9407
:10137000670C84E490E061E070E040E050E00E949F
:10138000670C8D8D882F90E09C012170307083E474
:1013900090E060E070E0A9010E94670C8D8D869559
:1013A000882F90E09C012170307083E490E061E030
:1013B00070E0A9010E94670C8D8D86958695882F17
:1013C00090E09C012170307083E490E062E070E076
:1013D000A9010E94670C8D8D869586958695882F2C
:1013E00090E09C012170307083E490E063E070E055
:1013F000A9010E94670C8D8D82958F70882F90E0D7
:101400009C012170307083E490E064E070E0A901F9
:101410000E94670C8D8D829586958770882F90E04D
:101420009C012170307083E490E065E070E0A901D8
:101430000E94670C8D8D8295869586958370882F86
:1014400090E09C012170307083E490E066E070E0F1
:10145000A9010E94670C8D8D881F8827881F282F5F
:1014600030E083E490E067E070E0A9010E94670C3F
:1014700084E490E062E070E041E050E00E94670C9C
:1014800080E090E0A0E0B0E4898F9A8FAB8FBC8FB2
:10149000698D7A8D8B8D9C8D20E030E048E453E49B
:1014A0000E941F02DC01CB018D8B9E8BAF8BB88F0E
:1014B0006D897E898F89988D20E030E040E85FE378
:1014C0000E94250488232CF481E090E09C8B8B8B78
:1014D0003FC06D897E898F89988D20E03FEF4FE76F
:1014E00057E40E94C50318164CF5698D7A8D8B8DD3
:1014F0009C8D20E030E040E251E40E941F02DC01BC
:10150000CB01BC01CD010E944900DC01CB019C8BC9
:101510008B8B0FC084E190E09A8B898B89899A89A3
:101520000197F1F79A8B898B8B899C8901979C8B0A
:101530008B8B8B899C89009769F714C06D897E8994
:101540008F89988D0E944900DC01CB019C8B8B8B8D
:101550008B899C89988B8F878F8598890197F1F764
:10156000988B8F8784E490E062E070E040E050E088
:101570000E94670C80E090E0A0E0B0E48B879C873D
:10158000AD87BE876B857C858D859E8520E030E0AC
:1015900048E453E40E941F02DC01CB018F8398874B
:1015A000A987BA876F81788589859A8520E030E0A0
:1015B00040E85FE30E94250488232CF481E090E05A
:1015C0009E838D833FC06F81788589859A8520E0D1
:1015D0003FEF4FE757E40E94C50318164CF56B85A3
:1015E0007C858D859E8520E030E040E251E40E94BC
:1015F0001F02DC01CB01BC01CD010E944900DC01CE
:10160000CB019E838D830FC084E190E09C838B830C
:101610008B819C810197F1F79C838B838D819E81C7
:1016200001979E838D838D819E81009769F714C0F9
:101630006F81788589859A850E944900DC01CB01FC
:101640009E838D838D819E819A83898389819A81EE
:101650000197F1F79A8389836D960FB6F894DEBFF0
:101660000FBECDBFCF91DF910895DF93CF9300D010
:101670000F92CDB7DEB78A836B838A81882F90E083
:101680000024969587950794969587950794982FAB
:10169000802D982F90688B81892B898389810E9466
:1016A000A6090F900F900F90CF91DF910895DF93CF
:1016B000CF9300D00F92CDB7DEB79B838A83198278
:1016C00019C08981282F30E08A819B81FC01E20FBB
:1016D000F31F8081882389F08981282F30E08A8157
:1016E0009B81FC01E20FF31F80810E941708898112
:1016F0008F5F89838981803120F30F900F900F9045
:10170000CF91DF910895DF93CF9300D000D00F9257
:10171000CDB7DEB789836A834B838981282F30E078
:101720003D832C838C819D818234910509F444C0D2
:101730002C813D812334310534F48C819D818134A9
:10174000910571F0BCC02C813D812334310509F431
:101750005FC08C819D818434910509F485C0AFC040
:101760008B818823A9F4AAE3B0E0EAE3F0E080816A
:10177000482F8A81282F30E081E090E0022E02C0BD
:10178000880F991F0A94E2F7809584238C9397C061
:10179000AAE3B0E0EAE3F0E08081482F8A81282FB5
:1017A00030E081E090E0022E02C0880F991F0A9479
:1017B000E2F7842B8C9383C08B818823A9F4A7E361
:1017C000B0E0E7E3F0E08081482F8A81282F30E005
:1017D00081E090E0022E02C0880F991F0A94E2F780
:1017E000809584238C936BC0A7E3B0E0E7E3F0E03F
:1017F0008081482F8A81282F30E081E090E0022EFE
:1018000002C0880F991F0A94E2F7842B8C9357C06B
:101810008B818823A9F4A4E3B0E0E4E3F0E08081C5
:10182000482F8A81282F30E081E090E0022E02C00C
:10183000880F991F0A94E2F7809584238C933FC008
:10184000A4E3B0E0E4E3F0E08081482F8A81282F10
:1018500030E081E090E0022E02C0880F991F0A94C8
:10186000E2F7842B8C932BC08B818823A9F4A1E30E
:10187000B0E0E1E3F0E08081482F8A81282F30E05A
:1018800081E090E0022E02C0880F991F0A94E2F7CF
:10189000809584238C9313C0A1E3B0E0E1E3F0E0F2
:1018A0008081482F8A81282F30E081E090E0022E4D
:1018B00002C0880F991F0A94E2F7842B8C930F9033
:1018C0000F900F900F900F90CF91DF910895DF93BD
:1018D000CF9300D000D00F92CDB7DEB789836A8353
:1018E0004B838981282F30E03D832C838C819D811F
:1018F0008234910509F444C02C813D8123343105A3
:1019000034F48C819D818134910571F0BCC02C81AF
:101910003D812334310509F45FC08C819D8184347D
:10192000910509F485C0AFC08B818823A9F4ABE38E
:10193000B0E0EBE3F0E08081482F8A81282F30E08F
:1019400081E090E0022E02C0880F991F0A94E2F70E
:10195000809584238C9397C0ABE3B0E0EBE3F0E099
:101960008081482F8A81282F30E081E090E0022E8C
:1019700002C0880F991F0A94E2F7842B8C9383C0CE
:101980008B818823A9F4A8E3B0E0E8E3F0E080814C
:10199000482F8A81282F30E081E090E0022E02C09B
:1019A000880F991F0A94E2F7809584238C936BC06B
:1019B000A8E3B0E0E8E3F0E08081482F8A81282F97
:1019C00030E081E090E0022E02C0880F991F0A9457
:1019D000E2F7842B8C9357C08B818823A9F4A5E36D
:1019E000B0E0E5E3F0E08081482F8A81282F30E0E5
:1019F00081E090E0022E02C0880F991F0A94E2F75E
:101A0000809584238C933FC0A5E3B0E0E5E3F0E04C
:101A10008081482F8A81282F30E081E090E0022EDB
:101A200002C0880F991F0A94E2F7842B8C932BC075
:101A30008B818823A9F4A2E3B0E0E2E3F0E08081A7
:101A4000482F8A81282F30E081E090E0022E02C0EA
:101A5000880F991F0A94E2F7809584238C9313C012
:101A6000A2E3B0E0E2E3F0E08081482F8A81282FF2
:101A700030E081E090E0022E02C0880F991F0A94A6
:101A8000E2F7842B8C930F900F900F900F900F9094
:101A9000CF91DF910895DF93CF9300D000D000D095
:101AA000CDB7DEB789836A838981282F30E03D83F3
:101AB0002C834C815D814234510549F18C819D819B
:101AC0008334910534F42C813D812134310561F05A
:101AD00057C04C815D814334510561F18C819D81FA
:101AE00084349105D1F14CC0E9E3F0E08081282FE6
:101AF00030E08A81882F90E0A90102C05595479572
:101B00008A95E2F7CA01582F51705B833AC0E6E329
:101B1000F0E08081282F30E08A81882F90E0A901B1
:101B200002C0559547958A95E2F7CA01582F517022
:101B30005B8327C0E3E3F0E08081282F30E08A81D7
:101B4000882F90E0A90102C0559547958A95E2F744
:101B5000CA01582F51705B8314C0E0E3F0E080812C
:101B6000282F30E08A81882F90E0A90102C0559586
:101B700047958A95E2F7CA01582F51705B8301C0DF
:101B800002C08B818E838E8126960FB6F894DEBFBD
:101B90000FBECDBFCF91DF910895DF93CF9300D0DB
:101BA0000F92CDB7DEB71A8258C08A81882F90E095
:101BB000FC01ED52FE4F20818A81882F90E0FC01CC
:101BC000E952FE4F9081822F692F40E00E94670CFE
:101BD00019822AC08981882F90E0FC01E552FE4FCE
:101BE00020818981882F90E0FC01E252FE4F908194
:101BF000822F692F0E944B0D882399F48A81282F08
:101C000030E08981482F50E0C901880F991F820F69
:101C1000931F840F951FFC01EF51FE4F80818B8332
:101C200021C089818F5F89838981833098F28A817D
:101C3000882F90E0FC01ED52FE4F20818A81882F91
:101C400090E0FC01E952FE4F9081822F692F41E024
:101C50000E94670C8A818F5F8A838A81843008F4AE
:101C6000A4CF1B828B810F900F900F90CF91DF91AB
:101C70000895DF93CF93CDB7DEB781E461E041E013
:101C80000E94670CCF91DF910895DF93CF93CDB77A
:101C9000DEB781E461E040E00E94670CCF91DF9104
:101CA0000895DF93CF93CDB7DEB7EAE3F0E08FEF8F
:101CB0008083E7E3F0E08FEF8083E4E3F0E08FEFF1
:101CC0008083E1E3F0E087E08083EBE3F0E01082E3
:101CD000E8E3F0E01082E5E3F0E01082E2E3F0E018
:101CE00088EF8083CF91DF910895DF93CF930F9298
:101CF000CDB7DEB789838981882F90E0FC01E05061
:101D0000FE4F20818981882F90E0FC01EC5FFD4F20
:101D10009081822F692F40E00E94670C80EC6981DE
:101D20000E94B30E0F90CF91DF910895DF93CF9370
:101D30000F92CDB7DEB789838981882F90E0FC01AF
:101D4000E050FE4F20818981882F90E0FC01EC5FFC
:101D5000FD4F9081822F692F41E00E94670C0F9008
:101D6000CF91DF910895DF93CF9300D0CDB7DEB749
:101D700089836A838A81882F90E0FC01EF5FFD4FA1
:101D8000898180838981882F90E0FC01E351FE4F97
:101D90008081982F917081E460E0492F0E94670C48
:101DA0008981882F90E0FC01E351FE4F8081869568
:101DB000982F917081E461E0492F0E94670C89811E
:101DC000882F90E0FC01E351FE4F80818695869537
:101DD000982F917081E462E0492F0E94670C8981FD
:101DE000882F90E0FC01E351FE4F80818695869517
:101DF0008695982F917081E463E0492F0E94670CCB
:101E00008981882F90E0FC01E351FE4F808182950B
:101E10008F70982F917081E464E0492F0E94670CC5
:101E20008981882F90E0FC01E351FE4F80818295EB
:101E300086958770982F917081E465E0492F0E9404
:101E4000670C8981882F90E0FC01E351FE4F80816F
:101E50008295869586958370982F917081E466E0CF
:101E6000492F0E94670C8981882F90E0FC01E35183
:101E7000FE4F8081982F991F9927991F81E467E071
:101E8000492F0E94670C0F900F90CF91DF9108951A
:101E9000DF93CF93CDB7DEB782E460E00E944B0DB5
:101EA000CF91DF910895DF93CF93CDB7DEB72C9715
:101EB0000FB6F894DEBF0FBECDBF69877A878B87D8
:101EC0009C8769857A858B859C850E94A904DC01A5
:101ED000CB01BC01CD0124E036E542E25FE30E9484
:101EE000C101DC01CB01BC01CD012FEF37EE40EB8E
:101EF0005BE30E941903DC01CB01BC01CD010E9410
:101F00004900DC01CB018D839E83AF83B8871982A2
:101F10001A821B821C820CC0000089819A81AB81CD
:101F2000BC810196A11DB11D89839A83AB83BC83BB
:101F300029813A814B815C818D819E81AF81B885F9
:101F4000281739074A075B0738F32C960FB6F89421
:101F5000DEBF0FBECDBFCF91DF9108950F931F93CA
:101F6000DF93CF93CDB7DEB7C057D0400FB6F8940C
:101F7000DEBF0FBECDBF0E94170780E690E00E9433
:101F8000570BFE01E359FF4F80E090E0AAE7B4E46D
:101F900080839183A283B3838E0107591F4FFE0173
:101FA000E359FF4F608171818281938120E030E0AD
:101FB0004AEF54E40E941F02DC01CB01F801808348
:101FC0009183A283B383FE01E759FF4F6081718142
:101FD0008281938120E030E040E85FE30E942504A5
:101FE000882344F4FE01E959FF4F81E090E091839A
:101FF000808364C0FE01E759FF4F60817181828157
:10200000938120E03FEF4FE757E40E94C503181685
:102010000CF043C0FE01E359FF4F60817181828162
:10202000938120E030E040E251E40E941F02DC0195
:10203000CB018E0109591F4FBC01CD010E944900FF
:10204000DC01CB01F801918380831FC0FE01EB59B5
:10205000FF4F88EC90E091838083FE01EB59FF4FA6
:10206000808191810197F1F7FE01EB59FF4F918338
:102070008083DE01A959BF4FFE01E959FF4F8081DE
:102080009181019711969C938E93FE01E959FF4F20
:10209000808191810097D1F627C08E0109591F4F89
:1020A000FE01E759FF4F60817181828193810E9417
:1020B0004900DC01CB01F80191838083DE01AD5939
:1020C000BF4FFE01E959FF4F808191818D939C9311
:1020D000FE01ED59FF4F808191810197F1F7FE01DB
:1020E000ED59FF4F918380830E94170781E063E0E1
:1020F0000E94350B80E690E00E94570BFE01E15AEA
:10210000FF4F80E090E0AAE7B4E480839183A2834C
:10211000B3838E01055A1F4FFE01E15AFF4F6081C4
:1021200071818281938120E030E04AEF54E40E9483
:102130001F02DC01CB01F80180839183A283B3836A
:10214000FE01E55AFF4F608171818281938120E019
:1021500030E040E85FE30E942504882344F4FE0158
:10216000E75AFF4F81E090E09183808364C0FE01D5
:10217000E55AFF4F608171818281938120E03FEFBA
:102180004FE757E40E94C50318160CF043C0FE0148
:10219000E15AFF4F608171818281938120E030E0BC
:1021A00040E251E40E941F02DC01CB018E01075A7C
:1021B0001F4FBC01CD010E944900DC01CB01F80199
:1021C000918380831FC0FE01E95AFF4F88EC90E0A5
:1021D00091838083FE01E95AFF4F808191810197AD
:1021E000F1F7FE01E95AFF4F91838083DE01A75A80
:1021F000BF4FFE01E75AFF4F8081918101971196F1
:102200009C938E93FE01E75AFF4F80819181009746
:10221000D1F627C08E01075A1F4FFE01E55AFF4F26
:1022200060817181828193810E944900DC01CB0130
:10223000F80191838083DE01AB5ABF4FFE01E75A5C
:10224000FF4F808191818D939C93FE01EB5AFF4F4C
:10225000808191810197F1F7FE01EB5AFF4F918345
:1022600080830E94170780E066E00E94350B80E6BD
:1022700090E00E94570BFE01EF5AFF4F80E090E084
:10228000AAE7B4E480839183A283B3838E01035BC6
:102290001F4FFE01EF5AFF4F608171818281938150
:1022A00020E030E04AEF54E40E941F02DC01CB0141
:1022B000F80180839183A283B383FE01E35BFF4F28
:1022C000608171818281938120E030E040E85FE3AA
:1022D0000E942504882344F4FE01E55BFF4F81E062
:1022E00090E09183808364C0FE01E35BFF4F6081D7
:1022F00071818281938120E03FEF4FE757E40E9494
:10230000C50318160CF043C0FE01EF5AFF4F608161
:1023100071818281938120E030E040E251E40E94AB
:102320001F02DC01CB018E01055B1F4FBC01CD01FB
:102330000E944900DC01CB01F801918380831FC01A
:10234000FE01E75BFF4F88EC90E091838083FE0104
:10235000E75BFF4F808191810197F1F7FE01E75B19
:10236000FF4F91838083DE01A55BBF4FFE01E55BDC
:10237000FF4F80819181019711969C938E93FE016E
:10238000E55BFF4F808191810097D1F627C08E01D8
:10239000055B1F4FFE01E35BFF4F6081718182810E
:1023A00093810E944900DC01CB01F8019183808375
:1023B000DE01A95BBF4FFE01E55BFF4F808191818C
:1023C0008D939C93FE01E95BFF4F80819181019782
:1023D000F1F7FE01E95BFF4F918380830E941707AD
:1023E00081E069E00E94350B80E690E00E94570B87
:1023F000FE01ED5BFF4F80E090E0AAE7B4E480834C
:102400009183A283B3838E01015C1F4FFE01ED5BBC
:10241000FF4F608171818281938120E030E04AEF3B
:1024200054E40E941F02DC01CB01F80180839183F8
:10243000A283B383FE01FF966081718182819381C3
:1024400020E030E040E85FE30E94250488232CF47C
:1024500081E090E09EAF8DAF46C0FE01FF966081A7
:1024600071818281938120E03FEF4FE757E40E9422
:10247000C503181664F5FE01ED5BFF4F60817181A5
:102480008281938120E030E040E251E40E941F020B
:10249000DC01CB01BC01CD010E944900DC01CB0174
:1024A0009EAF8DAF0FC088EC90E09CAF8BAF8BAD33
:1024B0009CAD0197F1F79CAF8BAF8DAD9EAD0197B1
:1024C0009EAF8DAF8DAD9EAD009769F716C0FE0132
:1024D000FF9660817181828193810E944900DC01B5
:1024E000CB019EAF8DAF8DAD9EAD9AAF89AF89AD5B
:1024F0009AAD0197F1F79AAF89AF0E94170780E074
:102500006CE00E94350B80E690E00E94570B80E063
:1025100090E0AAE7B4E48DAB9EABAFABB8AF6DA9CA
:102520007EA98FA998AD20E030E04AEF54E40E94E4
:102530001F02DC01CB0189AB9AABABABBCAB69A989
:102540007AA98BA99CA920E030E040E85FE30E94D3
:10255000250488232CF481E090E098AB8FA73FC03E
:1025600069A97AA98BA99CA920E03FEF4FE757E41E
:102570000E94C50318164CF56DA97EA98FA998ADC8
:1025800020E030E040E251E40E941F02DC01CB0178
:10259000BC01CD010E944900DC01CB0198AB8FA7A3
:1025A0000FC088EC90E09EA78DA78DA59EA50197F2
:1025B000F1F79EA78DA78FA598A9019798AB8FA734
:1025C0008FA598A9009769F714C069A97AA98BA962
:1025D0009CA90E944900DC01CB0198AB8FA78FA575
:1025E00098A99CA78BA78BA59CA50197F1F79CA701
:1025F0008BA70E94170781E069E00E94350B80E6F7
:1026000090E00E94570B80E090E0AAE7B4E48FA32B
:1026100098A7A9A7BAA76FA178A589A59AA520E030
:1026200030E04AEF54E40E941F02DC01CB018BA38F
:102630009CA3ADA3BEA36BA17CA18DA19EA120E014
:1026400030E040E85FE30E94250488232CF481E019
:1026500090E09AA389A33FC06BA17CA18DA19EA10C
:1026600020E03FEF4FE757E40E94C50318164CF5F2
:102670006FA178A589A59AA520E030E040E251E459
:102680000E941F02DC01CB01BC01CD010E94490068
:10269000DC01CB019AA389A30FC088EC90E098A33A
:1026A0008F8F8F8D98A10197F1F798A38F8F89A1B4
:1026B0009AA101979AA389A389A19AA1009769F782
:1026C00014C06BA17CA18DA19EA10E944900DC01D8
:1026D000CB019AA389A389A19AA19E8F8D8F8D8DFD
:1026E0009E8D0197F1F79E8F8D8F0E94170780E0D6
:1026F00066E00E94350B80E690E00E94570B80E078
:1027000090E0AAE7B4E4898F9A8FAB8FBC8F698D74
:102710007A8D8B8D9C8D20E030E04AEF54E40E944E
:102720001F02DC01CB018D8B9E8BAF8BB88F6D8927
:102730007E898F89988D20E030E040E85FE30E9439
:10274000250488232CF481E090E09C8B8B8B3FC088
:102750006D897E898F89988D20E03FEF4FE757E4A0
:102760000E94C50318164CF5698D7A8D8B8D9C8D52
:1027700020E030E040E251E40E941F02DC01CB0186
:10278000BC01CD010E944900DC01CB019C8B8B8BED
:102790000FC088EC90E09A8B898B89899A89019780
:1027A000F1F79A8B898B8B899C8901979C8B8B8BFA
:1027B0008B899C89009769F714C06D897E898F8900
:1027C000988D0E944900DC01CB019C8B8B8B8B89FF
:1027D0009C89988B8F878F8598890197F1F7988BC3
:1027E0008F870E94170781E063E00E94350B80E627
:1027F00090E00E94570B80E090E0AAE7B4E48B875A
:102800009C87AD87BE876B857C858D859E8520E006
:1028100030E04AEF54E40E941F02DC01CB018F83B9
:102820009887A987BA876F81788589859A8520E0FE
:1028300030E040E85FE30E94250488232CF481E027
:1028400090E09E838D833FC06F81788589859A85CE
:1028500020E03FEF4FE757E40E94C50318164CF500
:102860006B857C858D859E8520E030E040E251E4DB
:102870000E941F02DC01CB01BC01CD010E94490076
:10288000DC01CB019E838D830FC088EC90E09C839C
:102890008B838B819C810197F1F79C838B838D8146
:1028A0009E8101979E838D838D819E81009769F71C
:1028B00014C06F81788589859A850E944900DC0162
:1028C000CB019E838D838D819E819A8389838981AB
:1028D0009A810197F1F79A838983C059DF4F0FB628
:1028E000F894DEBF0FBECDBFCF91DF911F910F9146
:1028F0000895DF93CF93CDB7DEB76C970FB6F894FA
:10290000DEBF0FBECDBF80910E028F5F80930E029F
:1029100080910E02843008F43BC110920D02109297
:102920000E0290910902809108029817C9F49091C3
:102930000A0280910702981799F490910B028091F6
:102940000602981769F490910C028091050298177D
:1029500039F40E94170784E690E00E94570BFFCFDE
:102960000E94170785E790E00E94570B109209021A
:1029700010920A0210920B0210920C0280E090E476
:10298000ACE1B6E4898F9A8FAB8FBC8F698D7A8D5D
:102990008B8D9C8D20E030E04AEF54E40E941F02B2
:1029A000DC01CB018D8B9E8BAF8BB88F6D897E89BF
:1029B0008F89988D20E030E040E85FE30E94250495
:1029C00088232CF481E090E09C8B8B8B3FC06D8939
:1029D0007E898F89988D20E03FEF4FE757E40E9472
:1029E000C50318164CF5698D7A8D8B8D9C8D20E072
:1029F00030E040E251E40E941F02DC01CB01BC0147
:102A0000CD010E944900DC01CB019C8B8B8B0FC058
:102A100088EC90E09A8B898B89899A890197F1F7E4
:102A20009A8B898B8B899C8901979C8B8B8B8B894B
:102A30009C89009769F714C06D897E898F89988D6C
:102A40000E944900DC01CB019C8B8B8B8B899C897C
:102A5000988B8F878F8598890197F1F7988B8F874F
:102A60000E94170780910202815080930202809198
:102A70000202882309F082C084E890E00E94570B8C
:102A800081E060E00E94350B83E990E00E94570BE3
:102A900080E090E4ACE1B6E48B879C87AD87BE878D
:102AA0006B857C858D859E8520E030E04AEF54E47F
:102AB0000E941F02DC01CB018F839887A987BA8708
:102AC0006F81788589859A8520E030E040E85FE372
:102AD0000E94250488232CF481E090E09E838D835E
:102AE0003FC06F81788589859A8520E03FEF4FE769
:102AF00057E40E94C50318164CF56B857C858D85BF
:102B00009E8520E030E040E251E40E941F02DC019B
:102B1000CB01BC01CD010E944900DC01CB019E83A9
:102B20008D830FC088EC90E09C838B838B819C818C
:102B30000197F1F79C838B838D819E8101979E8302
:102B40008D838D819E81009769F714C06F81788590
:102B500089859A850E944900DC01CB019E838D8383
:102B60008D819E819A83898389819A810197F1F76A
:102B70009A83898383E0809302020AC00E94170728
:102B800085EA90E00E94570B81E060E00E94350BDF
:102B90006C960FB6F894DEBF0FBECDBFCF91DF911C
:102BA0000895DF93CF93CDB7DEB784E467E00E944A
:102BB0004B0D8823C1F487E30E94170884E467E083
:102BC0000E944B0D8823D1F380910D02882F90E055
:102BD000FC01EB5FFD4F87E0808380910D028F5FEA
:102BE00080930D0277C084E466E00E944B0D882339
:102BF000C1F486E30E94170884E466E00E944B0D4E
:102C00008823D1F380910D02882F90E0FC01EB5FC7
:102C1000FD4F86E0808380910D028F5F80930D02CF
:102C200059C084E465E00E944B0D8823C1F485E31C
:102C30000E94170884E465E00E944B0D8823D1F3BD
:102C400080910D02882F90E0FC01EB5FFD4F85E045
:102C5000808380910D028F5F80930D023BC084E4DE
:102C600064E00E944B0D8823C1F484E30E9417089E
:102C700084E464E00E944B0D8823D1F380910D021F
:102C8000882F90E0FC01EB5FFD4F84E08083809112
:102C90000D028F5F80930D021DC084E463E00E94EB
:102CA0004B0D8823B9F483E30E94170884E463E0A2
:102CB0000E944B0D8823D1F380910D02882F90E064
:102CC000FC01EB5FFD4F83E0808380910D028F5FFD
:102CD00080930D02CF91DF910895DF93CF93CDB70D
:102CE000DEB784E467E00E944B0D8823A9F48AE2F2
:102CF0000E94170884E467E00E944B0D8823D1F3FB
:102D000080910E02882F90E0FC01E75FFD4F87E085
:102D100080830E9479146BC084E466E00E944B0DAE
:102D20008823A9F48AE20E94170884E466E00E94DE
:102D30004B0D8823D1F380910E02882F90E0FC0187
:102D4000E75FFD4F86E080830E94791450C084E4E1
:102D500065E00E944B0D8823A9F48AE20E941708BF
:102D600084E465E00E944B0D8823D1F380910E022C
:102D7000882F90E0FC01E75FFD4F85E080830E9493
:102D8000791435C084E464E00E944B0D8823A9F4D3
:102D90008AE20E94170884E464E00E944B0D8823B5
:102DA000D1F380910E02882F90E0FC01E75FFD4F88
:102DB00084E080830E9479141AC084E463E00E9456
:102DC0004B0D8823A1F48AE20E94170884E463E093
:102DD0000E944B0D8823D1F380910E02882F90E042
:102DE000FC01E75FFD4F83E080830E947914CF915F
:102DF000DF910895DF93CF93CDB7DEB70E94170719
:102E00008091100290910F02692F0E94350B80E68D
:102E100090E00E94570BCF91DF910895DF93CF93FD
:102E2000CDB7DEB784E467E00E944B0D882391F4B0
:102E300080910F028D3028F480910F028F5F809374
:102E40000F020E94FA1684E467E00E944B0D88236B
:102E5000D1F347C084E466E00E944B0D882391F4CF
:102E600080911002882329F4809110028F5F809353
:102E700010020E94FA1684E466E00E944B0D88233B
:102E8000D1F32FC084E465E00E944B0D882391F4B8
:102E900080910F02882329F080910F028150809346
:102EA0000F020E94FA1684E465E00E944B0D88230D
:102EB000D1F317C084E464E00E944B0D882389F4A9
:102EC00080911002882329F0809110028150809314
:102ED00010020E94FA1684E464E00E944B0D8823DD
:102EE000D1F3CF91DF910895DF93CF93CDB7DEB7C4
:102EF0002E970FB6F894DEBF0FBECDBF80E00E94C4
:102F0000750E8091020260E00E94B30E0E94510E85
:102F10000E94170787EB90E00E94570B80E090E833
:102F2000ABE3B5E48B879C87AD87BE876B857C85DB
:102F30008D859E8520E030E04AEF54E40E941F0218
:102F4000DC01CB018F839887A987BA876F81788549
:102F500089859A8520E030E040E85FE30E942504FF
:102F600088232CF481E090E09E838D833FC06F81A5
:102F7000788589859A8520E03FEF4FE757E40E94E6
:102F8000C50318164CF56B857C858D859E8520E0E4
:102F900030E040E251E40E941F02DC01CB01BC01A1
:102FA000CD010E944900DC01CB019E838D830FC0BF
:102FB00088EC90E09C838B838B819C810197F1F757
:102FC0009C838B838D819E8101979E838D838D81D0
:102FD0009E81009769F714C06F81788589859A85ED
:102FE0000E944900DC01CB019E838D838D819E81EF
:102FF0009A83898389819A810197F1F79A838983DA
:103000000E9417078FEB90E00E94570B02C00E94AE
:10301000D11580910D028430D0F30E94170785EA04
:1030200090E00E94570B81E060E00E94350B0BC0DE
:103030008091020260E00E94B30E0E946D168091A2
:103040000E028430A8F3809102028823C1F766CF74
:103050002F923F924F925F926F927F928F929F92A8
:10306000AF92BF92CF92DF92EF92FF920F931F9396
:10307000CF93DF93CDB7DEB7CA1BDB0B0FB6F89447
:10308000DEBF0FBECDBF09942A88398848885F8487
:103090006E847D848C849B84AA84B984C884DF80F8
:1030A000EE80FD800C811B81AA81B981CE0FD11DDC
:1030B0000FB6F894DEBF0FBECDBFED010895F894B2
:0230C000FFCF40
:1030C2004D4732004C6F67696E20537563636573B9
:1030D2007366756C0057726F6E67207061737377D9
:1030E2006F7264004661696C656420332074696D97
:1030F2006573005368757474696E6720646F776EC8
:103102002E2E2E2E0050617373776F726420506CD6
:10311200656173653A200057656C636F6D650049A0
:103122004420506C656173653A2000000000000085
:103132000000000001020203030303040404040468
:103142000404040505050505050505050505050530
:103152000505050606060606060606060606060610
:1031620006060606060606060606060606060606FD
:1031720006060607070707070707070707070707E0
:1031820007070707070707070707070707070707CD
:1031920007070707070707070707070707070707BD
:1031A20007070707070707070707070707070707AD
:1031B2000707070808080808080808080808080890
:1031C200080808080808080808080808080808087D
:1031D200080808080808080808080808080808086D
:1031E200080808080808080808080808080808085D
:1031F200080808080808080808080808080808084D
:10320200080808080808080808080808080808083C
:10321200080808080808080808080808080808082C
:10322200080808080808080808080808080808081C
:103232000808084242424200010203424242040597
:10324200060102030405060708090A0B0C3F065B88
:103252004F666D7D077F6F01020408081020014050
:0432620042F903002A
:00000001FF
